:020000040000FA
:040000000FEF14F0FA
:1006000000504C4541534520574149542E2E2E0051
:10061000544F20444953504C4159203A280023203C
:10062000202056494557204C4F473A00434C4541FE
:1006300052494E47204C4F475300444F574E4C4F62
:100640004144494E472000444F574E4C4F414420AF
:100650004C4F4700434C454152204C4F47005345B7
:10066000542054494D450056494557204C4F4700AA
:1006700048483A4D4D3A5353004C4F47532E2E2E77
:10068000004E4F204C4F4753000A0D005350004579
:0306900056000011
:100694007BEC15F020EE60F010EE9AF01A0EDBCF32
:1006A400E3FFE806FCE25CEC13F0040E93EC14F0B8
:1006B40001C047F002C048F0140E136EAE0E146E63
:1006C400230E156E410E166E47C001F048C002F0AD
:1006D400036A046A000EB4EC0FF001C00FF002C00C
:1006E40010F003C011F004C012F0EFEC0CF00FC0D6
:1006F40028F010C029F011C02AF012C02BF0CBEC66
:1007040011F028C0C9F029C0CAF00001CABF94EF93
:1007140003F0CA5109E1640EC95DD8A094EF03F057
:1007240096EF03F09AEF03F0000ECA6F630EC96FE1
:10073400010E9DEC13F0536E53506FEC0AF05350BE
:10074400BCEC0EF05E045F10D8A4ABEF03F0ADEF89
:1007540003F05FEF04F0000E016E010EF3EC14F0F1
:10076400620E076E060E086E820E096ED9EC13F047
:100774008F0E076E060E086E8A0E096ED9EC13F002
:100784008C0E076E060E086E8E0E096ED9EC13F0F1
:10079400C00E096E0001CF5194EC15F0C10E096E24
:1007A4000001D05194EC15F0C20E096E0001D15134
:1007B40094EC15F0C30E096E0001D25194EC15F0BF
:1007C400C40E096E0001D35194EC15F0C50E096EE8
:1007D4000001D45194EC15F0C60E096E0001D551F8
:1007E40094EC15F0C70E096E0001D65194EC15F087
:1007F400E7C001F0E8C002F0000E046E030E036EC1
:100804003AEC15F09A0E0124076E000E0220086ED1
:10081400CA0E096ED9EC13F0CE0E096EC9C001F0F0
:10082400CAC002F0000E046E0A0E036E4EEC12F003
:100834000150300F94EC15F0CF0E096EC9C001F0D1
:10084400CAC002F0000E046E0A0E036EB0EC12F081
:100854000150300F94EC15F00001CF510A0DF3CF85
:1008640032F0F4CF33F0D0513226000E3322F00EA2
:100874003224586EFD0E3320596ED2510A0DF3CF37
:1008840032F0F4CF33F0D3513226000E3322F00E7F
:100894003224566EFD0E3320576ED5510A0DF3CF18
:1008A40032F0F4CF33F0D6513226000E3322F00E5C
:1008B4003224546EFD0E3320556E0001E505E61119
:1008C400D8A467EF04F069EF04F0C3EF04F0000E5E
:1008D400E66F000EE56FCFC049F0D0C04AF0D2C039
:1008E4004BF0D3C04CF0D5C04DF0D6C04EF0E7C0AD
:1008F40001F0E8C002F0000E046E030E036E3AEC41
:1009040015F09A0E0124D96E000E0220DA6EDF5023
:100914004F6EE7C001F0E8C002F0000E046E030E53
:10092400036E3AEC15F0010E0126000E02229A0E17
:100934000124D96E000E0220DA6EDF50506EC9C059
:1009440001F0CAC002F0000E046E0A0E036E4EECF3
:1009540012F00150300F516EC9C001F0CAC002F04C
:10096400000E046E0A0E036EB0EC12F00150300F4C
:10097400526E000E536E490E066E000E076E8EEC1C
:1009840010F0020E5E185F10D8A4CBEF04F0CDEF88
:1009940004F03CEF05F0000E016E010EF3EC14F0D0
:1009A4005A045B10D8A4D9EF04F0DBEF04F0E0EFB5
:1009B40004F0800E096E2A0E94EC15F0020E5A18FB
:1009C4005B10D8A4E8EF04F0EAEF04F0EFEF04F0D2
:1009D400C00E096E2A0E94EC15F05C045D10D8A4C8
:1009E400F6EF04F0F8EF04F008EF05F0670E076E79
:1009F400060E086E810E096ED9EC13F05E0E076EBA
:100A0400060E086EC10E096ED9EC13F0020E5C18C6
:100A14005D10D8A410EF05F012EF05F022EF05F0F9
:100A24005E0E076E060E086E810E096ED9EC13F089
:100A3400470E076E060E086EC10E096ED9EC13F050
:100A4400030E5C185D10D8A42AEF05F02CEF05F016
:100A54003CEF05F0470E076E060E086E810E096E18
:100A6400D9EC13F0540E076E060E086EC10E096E13
:100A7400D9EC13F0030E5E185F10D8A444EF05F010
:100A840046EF05F055EF03F0000E016E010EF3EC96
:100A940014F05C045D10D8A452EF05F054EF05F097
:100AA40033EF06F05A045B10D8A45BEF05F05DEF5A
:100AB40005F033EF06F00001E351E411D8A465EF2B
:100AC40005F067EF05F09EEF05F0810E076E060E48
:100AD400086E810E096ED9EC13F0100E076E060E27
:100AE400086EC10E096ED9EC13F0000E0001946F6C
:100AF400000E936FDD51326EDE51336EDD4BDE2B13
:100B040033BE8EEF05F0910E325C010E3358D8A03F
:100B14008EEF05F090EF05F033EF06F0000E5F6EF8
:100B2400020E5E6E000E946F010E936F000EDE6F68
:100B3400000EDD6F33EF06F0000EC06F000EBF6FC6
:100B4400E1C0C5F0E2C0C6F0B7EF05F0B50EBF25B1
:100B5400D96E000EC021DA6EC55110EC15F0DF6EAF
:100B64000001BF4BC02BC54BC62B0A0EE125326ECC
:100B7400000EE221336E3250C55DC651800A346ED8
:100B84003350800A3458D8A0CAEF05F0CCEF05F0F2
:100B9400A8EF05F01E0E076E060E086E800E096E95
:100BA400D9EC13F0000E0001BF6FC00E096EE1C056
:100BB40001F0E2C002F0000E046E0A0E036E4EEC69
:100BC40012F00150300F94EC15F0C20E096E0001C2
:100BD400B55194EC15F0C30E096E0001B65194ECB6
:100BE40015F0C40E096E3A0E94EC15F0C50E096E9C
:100BF4000001B75194EC15F0C60E096E0001B8510E
:100C040094EC15F0C70E096E3A0E94EC15F0C80E6C
:100C1400096E0001B95194EC15F0C90E096E00017A
:100C2400BA5194EC15F0CB0E096E0001BB5194EC53
:100C340015F0CC0E096E0001BC5194EC15F0CE0EEB
:100C4400096E0001BD5194EC15F0CF0E096E000140
:100C5400BE5194EC15F0D00E096E0001BF5194EC16
:100C640015F0020E5C185D10D8A43BEF06F03DEFC2
:100C740006F046EF06F05A045B10D8B444EF06F0D1
:100C840046EF06F059EF06F05C045D10D8A44DEF72
:100C940006F04FEF06F026EF08F0020E5A185B102C
:100CA400D8A457EF06F059EF06F026EF08F000013C
:100CB400DD51326EDE51336EDD4BDE2B33BE6CEF15
:100CC40006F0335009E1970E325CD8A06CEF06F0C1
:100CD4006EEF06F07FEF06F0000EDE6F000EDD6FA4
:100CE4008F519011D8B479EF06F07CEF06F0010E25
:100CF4007DEF06F0000E8F6F906B700E076E060E80
:100D0400086E810E096ED9EC13F000019505961159
:100D1400D8A48FEF06F091EF06F010EF07F08F5193
:100D24009011D8B498EF06F09AEF06F0BCEF06F0F5
:100D3400C10E096E58C001F059C002F0000E046ED5
:100D44000A0E036E4EEC12F00150300F94EC15F0C5
:100D5400C20E096E58C001F059C002F0000E046EB4
:100D64000A0E036EB0EC12F00150300F94EC15F043
:100D7400C6EF06F0C10E096E200E94EC15F0C20EFB
:100D8400096E200E94EC15F0C30E096E3A0E94EC25
:100D940015F0C40E096E56C001F057C002F0000EE3
:100DA400046E0A0E036E4EEC12F00150300F94ECF8
:100DB40015F0C50E096E56C001F057C002F0000EC2
:100DC400046E0A0E036EB0EC12F00150300F94EC76
:100DD40015F0C60E096E3A0E94EC15F0C70E096EA6
:100DE40054C001F055C002F0000E046E0A0E036EEA
:100DF4004EEC12F00150300F94EC15F0C80E096E51
:100E040054C001F055C002F0000E046E0A0E036EC9
:100E1400B0EC12F00150300F94EC15F0020E00010A
:100E240095199611D8A419EF07F01BEF07F09BEF63
:100E340007F0C10E096E58C001F059C002F0000E4F
:100E4400046E0A0E036E4EEC12F00150300F94EC57
:100E540015F0C20E096E58C001F059C002F0000E20
:100E6400046E0A0E036EB0EC12F00150300F94ECD5
:100E740015F0C30E096E3A0E94EC15F000018F5173
:100E84009011D8B448EF07F04AEF07F06CEF07F081
:100E9400C40E096E56C001F057C002F0000E046E75
:100EA4000A0E036E4EEC12F00150300F94EC15F064
:100EB400C50E096E56C001F057C002F0000E046E54
:100EC4000A0E036EB0EC12F00150300F94EC15F0E2
:100ED40076EF07F0C40E096E200E94EC15F0C50EE3
:100EE400096E200E94EC15F0C60E096E3A0E94ECC1
:100EF40015F0C70E096E54C001F055C002F0000E83
:100F0400046E0A0E036E4EEC12F00150300F94EC96
:100F140015F0C80E096E54C001F055C002F0000E61
:100F2400046E0A0E036EB0EC12F00150300F94EC14
:100F340015F0030E000195199611D8A4A4EF07F03B
:100F4400A6EF07F026EF08F0C10E096E58C001F0B5
:100F540059C002F0000E046E0A0E036E4EEC12F03D
:100F64000150300F94EC15F0C20E096E58C001F018
:100F740059C002F0000E046E0A0E036EB0EC12F0BB
:100F84000150300F94EC15F0C30E096E3A0E94EC38
:100F940015F0C40E096E56C001F057C002F0000EE1
:100FA400046E0A0E036E4EEC12F00150300F94ECF6
:100FB40015F0C50E096E56C001F057C002F0000EC0
:100FC400046E0A0E036EB0EC12F00150300F94EC74
:100FD40015F0C60E096E3A0E94EC15F000018F510F
:100FE4009011D8B4F8EF07F0FAEF07F01CEF08F00F
:100FF400C70E096E54C001F055C002F0000E046E15
:101004000A0E036E4EEC12F00150300F94EC15F002
:10101400C80E096E54C001F055C002F0000E046EF3
:101024000A0E036EB0EC12F00150300F94EC15F080
:1010340026EF08F0C70E096E200E94EC15F0C80ECA
:10104400096E200E94EC15F0020E5C185D10D8A405
:101054002EEF08F030EF08F03AEF08F0020E5A18BD
:101064005B10D8B438EF08F03AEF08F04DEF08F011
:10107400030E5C185D10D8A442EF08F044EF08F0AA
:1010840004EF0AF05A045B10D8A44BEF08F04DEFBC
:1010940008F004EF0AF0000191519211D8B455EF11
:1010A40008F057EF08F0C3EF09F0000EC26F000E0E
:1010B400C16F000EC46F000EC36F000ECC6F000E24
:1010C400CB6F4BEF09F0000ECE6F000ECD6FCEBF8D
:1010D40075EF08F0CE5109E1110ECD5DD8A075EF82
:1010E40008F077EF08F079EF08F033EF09F0CD0559
:1010F400CE11D8B480EF08F082EF08F0A0EF08F02A
:10110400020ECD19CE11D8B48AEF08F08CEF08F096
:10111400A0EF08F00B0ECD19CE11D8B494EF08F05F
:1011240096EF08F0A0EF08F00E0ECD19CE11D8A45A
:101134009EEF08F0A0EF08F0BBEF08F0CBC001F081
:10114400CCC002F0000E046E120E036E3AEC15F0E1
:10115400000E0124326E010E0220336E0001CD51C7
:101164003224D96ECE513320DA6E200EDF6E2FEF8B
:1011740009F0050ECD19CE11D8B4C3EF08F0C5EFB0
:1011840008F0CFEF08F0080ECD19CE11D8A4CDEF9A
:1011940008F0CFEF08F0EAEF08F0CBC001F0CCC0C4
:1011A40002F0000E046E120E036E3AEC15F0000EFF
:1011B4000124326E010E0220336E0001CD5132241F
:1011C400D96ECE513320DA6E3A0EDF6E2FEF09F06E
:1011D400CD51CE11D8A4F1EF08F0F3EF08F011EFE0
:1011E40009F0CBC001F0CCC002F0000E046E120E68
:1011F400036E3AEC15F0000E0124326E010E02204B
:10120400336E0001CD513224D96ECE513320DA6EC3
:10121400C151300FDF6EC14BC22B2FEF09F0CBC091
:1012240001F0CCC002F0000E046E120E036E3AEC14
:1012340015F0000E0124326E010E0220336E0001FF
:10124400CD513224D96ECE513320DA6EC35110EC15
:1012540015F0DF6E0001C34BC42BCD4BCE2B69EFD1
:1012640008F0CBC001F0CCC002F0000E046E120EE8
:10127400036E3AEC15F0110E0126000E0222000E48
:101284000124D96E010E0220DA6EDF6A0001CB4B15
:10129400CC2BE9C001F0EAC002F0000E046E0A0E85
:1012A400036E4EEC12F001500001CB5DCC51800A6C
:1012B400326E0250800A3258D8A063EF09F065EF0D
:1012C40009F065EF08F0E351E411D8B46CEF09F0CC
:1012D4006EEF09F0BFEF09F020EE7BF010EE35F071
:1012E400110EDBCFE3FFE806FCE2350E076E000EBD
:1012F400086E40EC14F0890E076E060E086E40EC82
:1013040014F0000E0001C86F000EC76FA5EF09F0BE
:10131400C7C001F0C8C002F0000E046E120E036EC6
:101324003AEC15F0000E0124076E010E0220086E3F
:1013340040EC14F0890E076E060E086E40EC14F0B3
:101344000001C74BC82BE9C001F0EAC002F0000E4F
:10135400046E0A0E036E4EEC12F001500001C75DDC
:10136400C851800A326E0250800A3258D8A0BDEFAC
:1013740009F0BFEF09F08AEF09F0000E926F000E3A
:10138400916F3A0E076E060E086E800E096ED9EC48
:1013940013F0790E076E060E086EC80E096ED9ECAE
:1013A40013F0000E0001946F000E936FDD51326E46
:1013B400DE51336EDD4BDE2B33BEEAEF09F0910EC6
:1013C400325C010E3358D8A0EAEF09F0ECEF09F0D3
:1013D40004EF0AF0000E5F6E020E5E6E000E5D6E8C
:1013E400010E5C6E000E5B6E010E5A6E000EDE6F17
:1013F400000EDD6F000E946F010E936F000E926F5E
:10140400010E916F030E5C185D10D8A40CEF0AF066
:101414000EEF0AF055EF03F0020E5A185B10D8A431
:1014240016EF0AF018EF0AF055EF03F0000E000172
:10143400E46F000EE36F2C0E076E060E086E810E2D
:10144400096ED9EC13F0010E076E060E086EC10E7C
:10145400096ED9EC13F0000E0001946F000E936F27
:10146400DD51326EDE51336EDD4BDE2B33BE44EF85
:101474000AF0910E325C010E3358D8A044EF0AF002
:1014840046EF0AF06BEF0AF0000E5F6E020E5E6E1E
:10149400000E5D6E010E5C6E000E5B6E010E5A6EE8
:1014A400000EDE6F000EDD6F000EE06F010EDF6FC9
:1014B400490E066E000E076E8EEC10F0000E000151
:1014C400E06F000EDF6F000E946F010E936F55EF07
:1014D40003F055EF03F000EF00F0026E0204D8A40D
:1014E40076EF0AF078EF0AF0CBEF0AF05E045F10B3
:1014F400D8A47FEF0AF081EF0AF0CBEF0AF0000ED8
:101504000001E46F010EE36F000EDC6F010EDB6F70
:101514008D518E11D8B491EF0AF093EF0AF0BBEF1E
:101524000AF0E74BE82BE8BFA3EF0AF0E85107E124
:10153400080EE75DD8B0A1EF0AF0A3EF0AF0A7EF19
:101544000AF0000EE66F010EE56FE8BFB3EF0AF094
:10155400E85109E1080EE75DD8A0B3EF0AF0B5EF52
:101564000AF085EF0BF0000EE86F070EE76F85EFCA
:101574000BF0000EE66F010EE56F000E8E6F010E8C
:101584008D6F000EE86F010EE76F85EF0BF085EFAE
:101594000BF00204D8A4D1EF0AF0D3EF0AF085EFE0
:1015A4000BF0030E5E185F10D8A4DBEF0AF0DDEF3A
:1015B4000AF085EF0BF05A045B10D8A4E4EF0AF0AC
:1015C400E6EF0AF005EF0BF05C045D10D8A4EDEF34
:1015D4000AF0EFEF0AF005EF0BF00001F60EE12739
:1015E400FF0EE223E2BF01EF0BF0E25106E1E10559
:1015F400D8B0FFEF0AF001EF0BF005EF0BF0000E8F
:10160400E26F000EE16F020E5C185D10D8A40DEFBE
:101614000BF00FEF0BF018EF0BF05A045B10D8B47B
:1016240016EF0BF018EF0BF02BEF0BF05C045D10D2
:10163400D8A41FEF0BF021EF0BF085EF0BF0020E97
:101644005A185B10D8A429EF0BF02BEF0BF085EFA1
:101654000BF0000195059611D8A433EF0BF035EF8C
:101664000BF049EF0BF0584A592A59BE43EF0BF0DF
:10167400595009E1180E585CD8A043EF0BF045EF20
:101684000BF049EF0BF0000E596E000E586E020E6F
:1016940095199611D8A451EF0BF053EF0BF067EFA7
:1016A4000BF0564A572A57BE61EF0BF0575009E129
:1016B4003C0E565CD8A061EF0BF063EF0BF067EFC4
:1016C4000BF0000E576E000E566E030E9519961110
:1016D400D8A46FEF0BF071EF0BF085EF0BF0544AC9
:1016E400552A55BE7FEF0BF0555009E13C0E545C72
:1016F400D8A07FEF0BF081EF0BF0C9EF0AF0000EDA
:10170400556E000E546E0204D8A48BEF0BF08DEFCF
:101714000BF0B7EF0BF0020E5E185F10D8A495EF34
:101724000BF097EF0BF0B7EF0BF05A06D8A05B065F
:101734005A505B10D8A4A1EF0BF0A3EF0BF0AAEF63
:101744000BF05C06D8A05D06000E5B6E010E5A6EAF
:101754005C505D10D8A4B1EF0BF0B3EF0BF0B7EF12
:101764000BF0000E5D6E010E5C6E0001DB05DC11FA
:10177400D8B4BFEF0BF0C1EF0BF0D5EF0BF0020EB6
:101784005E185F10D8B4C9EF0BF0CBEF0BF0D5EFB8
:101794000BF0030E5E185F10D8A4D3EF0BF0D5EF57
:1017A4000BF0CCEF0CF0020E0218D8A4DCEF0BF017
:1017B400DEEF0BF01BEF0CF05E045F10D8A4E5EF36
:1017C4000BF0E7EF0BF01BEF0CF08D518E11D8B43A
:1017D400EEEF0BF0F0EF0BF00DEF0CF0E707D8A0F5
:1017E400E807E8BFF8EF0BF0FAEF0BF0FEEF0BF0B1
:1017F400000EE66F010EE56FE751E811D8A405EF7E
:101804000CF007EF0CF0CCEF0CF0000EE86F010EBB
:10181400E76FCCEF0CF0000EE66F010EE56F000EE3
:101824008E6F010E8D6F000EE86F010EE76FCCEF27
:101834000CF0020E0218D8A422EF0CF024EF0CF0E6
:1018440097EF0CF0030E5E185F10D8A42CEF0CF089
:101854002EEF0CF097EF0CF05A045B10D8A435EF80
:101864000CF037EF0CF05BEF0CF05C045D10D8A4C7
:101874003EEF0CF040EF0CF05BEF0CF00A0EE125AC
:10188400E16F000EE221E26FE951E15DE251800A6D
:10189400016EEA51800A0158D8A053EF0CF055EFBD
:1018A4000CF05BEF0CF0F60EE125E16FFF0EE22188
:1018B400E26F020E5C185D10D8A463EF0CF065EFC4
:1018C4000CF06EEF0CF05A045B10D8B46CEF0CF013
:1018D4006EEF0CF081EF0CF05C045D10D8A475EF92
:1018E4000CF077EF0CF0CCEF0CF0020E5A185B10F2
:1018F400D8A47FEF0CF081EF0CF0CCEF0CF0954BFB
:10190400962B96BF8FEF0CF0965109E1040E955D6E
:10191400D8A08FEF0CF091EF0CF0CCEF0CF0000E90
:10192400966F010E956FCCEF0CF0020E0218D8A43E
:101934009EEF0CF0A0EF0CF0CCEF0CF0020E5E1852
:101944005F10D8A4A8EF0CF0AAEF0CF0CCEF0CF0C9
:101954005A4A5B2A030E5A185B10D8A4B4EF0CF051
:10196400B6EF0CF0BCEF0CF05C4A5D2A000E5B6E27
:10197400020E5A6E040E5C185D10D8A4C4EF0CF06D
:10198400C6EF0CF0CCEF0CF0000E5D6E030E5C6E37
:10199400CCEF0CF0030E0218D8A4D3EF0CF0D5EF63
:1019A4000CF0EEEF0CF05E045F10D8A4DCEF0CF04A
:1019B400DEEF0CF0EEEF0CF0000EE66F010EE56FBB
:1019C400000EE86F080EE76F000E8E6F000E8D6F2D
:1019D400000EDC6F010EDB6F12001250800B1F6EC5
:1019E40012501224266E11AEFAEF0CF0FCEF0CF03C
:1019F400FDEF0CF026802650D8B403EF0DF005EF70
:101A04000DF01AEF0DF02628D8A40BEF0DF00DEF12
:101A14000DF015EF0DF0000E0F6E000E106E000E9F
:101A2400116E000E126E118E000E126E22EF0DF06A
:101A3400000E0F6E000E106E000E116E000E126E70
:101A44001650800B1F1A16501624276E15AE2DEF54
:101A54000DF02FEF0DF030EF0DF027802750D8B4A4
:101A640036EF0DF038EF0DF04DEF0DF02728D8A428
:101A74003EEF0DF040EF0DF048EF0DF0000E136E49
:101A8400000E146E000E156E000E166E158E000EEE
:101A9400166E55EF0DF0000E136E000E146E000E50
:101AA400156E000E166E1350141015101610D8A4CF
:101AB4005EEF0DF060EF0DF078EF0DF0000E0F6E9D
:101AC400000E106E000E116E000E126E800E1112BA
:101AD4007F0E12121F5012120FC00FF010C010F020
:101AE40011C011F012C012F0BBEF0EF02650D8A4B2
:101AF4007EEF0DF080EF0DF08AEF0DF0000E0F6E0B
:101B0400000E106E000E116E000E126EBBEF0EF082
:101B1400275026C017F0186A175E000E185A7F0E59
:101B24001724206E000E1820216E0FC01BF010C069
:101B34001CF011C01DF012C01EF0000E0F6E000E3E
:101B4400106E000E116E000E126E000E226E000E4C
:101B5400236E000E246E000E256E000E276EEBEF32
:101B64000DF02750D8B4B9EF0DF0BBEF0DF0D2EF64
:101B74000DF0D8901B361C361D361E36D8900F3605
:101B840010361136123625AECAEF0DF0CCEF0DF03B
:101B9400CDEF0DF00F80D89022362336243625362B
:101BA40013501B5C14501C5815501D5816501E58C9
:101BB400D8A0DFEF0DF0E1EF0DF0EAEF0DF0258C8A
:101BC40013501B5E14501C5A15501D5A16501E5AA1
:101BD400272A190E2764F1EF0DF0F3EF0DF0B3EFA0
:101BE4000DF01B501C101D101E10D8B4FCEF0DF08E
:101BF400FEEF0DF016EF0EF0228016EF0EF0D890E7
:101C04000F3610361136123625AE0BEF0EF00DEFEF
:101C14000EF00EEF0EF00F80D890223623362436C5
:101C240025362006D8A0210611AE1BEF0EF01DEFBD
:101C34000EF001EF0EF0000E276E25AE24EF0EF02D
:101C440026EF0EF04AEF0EF0FF0E2214176EFF0E71
:101C54002314186EFF0E2414196E7F0E25141A6EA9
:101C64001750181019101A10D8B43BEF0EF03DEFAE
:101C74000EF041EF0EF0010E276E4AEF0EF00FA0AA
:101C840046EF0EF048EF0EF04AEF0EF03DEF0EF087
:101C94002750D8B450EF0EF052EF0EF076EF0EF05E
:101CA400010E0F26000E10221122122212A05DEF47
:101CB4000EF05FEF0EF076EF0EF00FC017F010C0CD
:101CC40018F011C019F012C01AF01A341A3219326D
:101CD4001832173217C00FF018C010F019C011F0E5
:101CE4001AC012F0204A212A21BE81EF0EF02150A1
:101CF40008E12028D8A081EF0EF083EF0EF08EEFDC
:101D04000EF0000E216E2068000E0F6E000E106E95
:101D1400000E116E000E126E21BE9BEF0EF02150CC
:101D240006E12004D8B099EF0EF09BEF0EF0A9EF76
:101D34000EF0000E216E000E206E000E0F6E000ECF
:101D4400106E000E116E000E126E000E1F6E20C07B
:101D540026F026A0B0EF0EF0B2EF0EF0B5EF0EF0C5
:101D6400118EB6EF0EF0119ED8902630126E6CEFE5
:101D74000DF012000D6E0B0E0D18D8A4C4EF0EF06A
:101D8400C6EF0EF084EF0FF05E4A5F2A040E5E1871
:101D94005F10D8A4D0EF0EF0D2EF0EF061EF0FF089
:101DA400000E5F6E030E5E6E020E5C185D10D8A40A
:101DB400DEEF0EF0E0EF0EF0E9EF0EF05A045B10E8
:101DC400D8B4E7EF0EF0E9EF0EF0FCEF0EF05C0490
:101DD4005D10D8A4F0EF0EF0F2EF0EF05DEF0FF00F
:101DE400020E5A185B10D8A4FAEF0EF0FCEF0EF0B6
:101DF4005DEF0FF058C001F059C002F0000E046E00
:101E04000A0E036EB0EC12F001C00BF002C00CF02D
:101E140058C001F059C002F0000E046E0A0E036EA1
:101E24004EEC12F00138F00B0B10096E020E6CEC44
:101E340015F056C001F057C002F0000E046E0A0EF1
:101E4400036EB0EC12F001C00BF002C00CF056C0EF
:101E540001F057C002F0000E046E0A0E036E4EEC41
:101E640012F00138F00B0B10096E010E6CEC15F03A
:101E740054C001F055C002F0000E046E0A0E036E49
:101E8400B0EC12F001C00BF002C00CF054C001F031
:101E940055C002F0000E046E0A0E036E4EEC12F0F2
:101EA4000138F00B0B10096E000E6CEC15F0000EEF
:101EB4005F6E010E5E6E000E5B6E010E5A6E020EB8
:101EC4005C185D10D8A469EF0FF06BEF0FF084EF8E
:101ED4000FF0020E5A185B10D8A473EF0FF075EFD1
:101EE4000FF084EF0FF0030E5E185F10D8A47DEF9F
:101EF4000FF07FEF0FF084EF0FF0000E0001E26FA0
:101F0400000EE16F0C0E0D18D8A48BEF0FF08DEFBF
:101F14000FF0B3EF0FF0000193059411D8A495EFDF
:101F24000FF097EF0FF0B3EF0FF05E06D8A05F0647
:101F3400000E5B6E010E5A6E000E5D6E010E5C6E3D
:101F4400000EE26F000EE16F5E505F10D8A4ADEF9B
:101F54000FF0AFEF0FF0B3EF0FF0000E5F6E010E56
:101F64005E6E1200096E0950D8B4BBEF0FF0BDEFDE
:101F74000FF0DFEF0FF004BEC4EF0FF0C2EF0FF06D
:101F8400DFEF0FF001C005F002C006F003C007F058
:101F940004C008F0051E061E071E081E052A000EB2
:101FA40006220722082205C00BF006C00CF007C069
:101FB4000DF008C00EF0E7EF0FF001C00BF002C007
:101FC4000CF003C00DF004C00EF001500210031019
:101FD4000410D8A4F0EF0FF0F2EF0FF0FCEF0FF0C5
:101FE400000E016E000E026E000E036E000E046EF3
:101FF4008DEF10F0960E0A6E06EF10F00A2AD890B4
:102004000E320D320C320B32000E0B14056E000E24
:102014000C14066E000E0D14076EFE0E0E14086EE0
:102024000550061007100810D8A41BEF10F01DEF80
:1020340010F000EF10F02BEF10F00A2A010E0B261F
:10204400000E0C220D220E22D8900E320D320C32CC
:102054000B32000E0B14056E000E0C14066E000EEF
:102064000D14076EFF0E0E14086E055006100710AF
:102074000810D8A440EF10F042EF10F01FEF10F05A
:102084004AEF10F00A06D8900B360C360D360E3691
:102094000DBE4FEF10F051EF10F059EF10F0020E9B
:1020A4000A6057EF10F059EF10F044EF10F00AB047
:1020B4005EEF10F060EF10F061EF10F00D9ED8901D
:1020C4000A320AC005F0066A076A086A05C008F001
:1020D400076A066A056A05500B1206500C1207506F
:1020E4000D1208500E120950D8B47BEF10F07DEF9A
:1020F40010F085EF10F004BE84EF10F082EF10F0C2
:1021040085EF10F00E8E0BC001F00CC002F00DC074
:1021140003F00EC004F01200000E096E0A0E086EE1
:102124000001DF05E011D8A49AEF10F09CEF10F045
:10213400B9EF10F0000EEA6F000EE96F000E126E98
:10214400000E116E000E026E1150B6EC14F0114A1E
:10215400122A12BEB7EF10F0125009E1640E115C9E
:10216400D8A0B7EF10F0B9EF10F0A4EF10F0640EA0
:102174000001E919EA11D8A4C2EF10F0C4EF10F07D
:10218400CCEF10F0000EEA6F000EE96F000EE06F66
:10219400020EDF6F020EDF19E011D8A4D4EF10F0A5
:1021A400D6EF10F01BEF11F0000E0C6E000E0B6E4C
:1021B400085010EC15F00A6E084A092A0AC002F009
:1021C4000001E951B6EC14F00001E94BEA2B0B4A8B
:1021D4000C2A0CBEF7EF10F00C5009E15A0E0B5C00
:1021E400D8A0F7EF10F0F9EF10F0DAEF10F0000ECE
:1021F4000E6E000E0D6E0D500624D96E0E50072083
:10220400DA6EDF50026EE951B6EC14F00001E94BCE
:10221400EA2B0D4A0E2A0EBE19EF11F00E5009E1F9
:102224000A0E0D5CD8A019EF11F01BEF11F0FDEFB1
:1022340010F0DF51E011D8A422EF11F024EF11F0D7
:1022440046EF11F0000E106E000E0F6E0F500624B4
:10225400D96E10500720DA6EDF50026EE951B6ECE9
:1022640014F00001E94BEA2B0F4A102A10BE44EF88
:1022740011F0105009E10A0E0F5CD8A044EF11F0E0
:1022840046EF11F028EF11F01200819A818C818EB3
:1022940081B24FEF11F051EF11F054EF11F0010E34
:1022A400CAEF11F081B459EF11F05BEF11F05EEF5A
:1022B40011F0040ECAEF11F081B663EF11F065EF6F
:1022C40011F068EF11F0070ECAEF11F081B86DEF4D
:1022D40011F06FEF11F072EF11F00A0ECAEF11F066
:1022E400818A819C818E81B27AEF11F07CEF11F0AA
:1022F4007FEF11F0020ECAEF11F081B484EF11F0F8
:1023040086EF11F089EF11F0050ECAEF11F081B6D6
:102314008EEF11F090EF11F093EF11F0080ECAEF69
:1023240011F081B898EF11F09AEF11F09DEF11F0D0
:102334000B0ECAEF11F0818A818C819E819E81B23D
:10234400A6EF11F0A8EF11F0ABEF11F0030ECAEFF6
:1023540011F081B4B0EF11F0B2EF11F0B5EF11F05C
:10236400060ECAEF11F081B6BAEF11F0BCEF11F00E
:10237400BFEF11F0090ECAEF11F081B8C4EF11F0EC
:10238400C6EF11F0C9EF11F00C0ECAEF11F0FF0EF9
:1023940012002A342B34316E3150D8A4D4EF11F00A
:1023A400D6EF11F0E0EF11F0000E286E000E296E4A
:1023B400000E2A6E000E2B6E4DEF12F028C02CF08A
:1023C40029C02DF02AC02EF02BC02FF0200EF0EFE4
:1023D40011F0D8902F322E322D322C32E82EEBEF22
:1023E40011F02C50306E2A8EFF0E2816FF0E29167F
:1023F400FF0E2A16000E2B16960E315E31BE07EF25
:1024040012F005EF12F01DEF12F03150800A970F11
:10241400D8B00FEF12F011EF12F013EF12F0D6EF65
:1024240011F0D8902B322A3229322832313E13EF60
:1024340012F035EF12F01F0E316423EF12F025EF86
:1024440012F02DEF12F0D6EF11F0D890283629367D
:102454002A362B3631063150D8A433EF12F035EF3B
:1024640012F027EF12F03050D8B43BEF12F03DEFEA
:1024740012F045EF12F02B1E2A1E291E286C000EA6
:1024840029222A222B2228C028F029C029F02AC078
:102494002AF02BC02BF01200000E066E04BE57EF7C
:1024A40012F055EF12F05DEF12F0036C041ED8B079
:1024B400042A010E066E02BE64EF12F062EF12F0FF
:1024C4006AEF12F0016C021ED8B0022A010E061A3D
:1024D400000E086E000E076E03500410D8B475EF9A
:1024E40012F077EF12F09FEF12F0010E056E7FEFFE
:1024F40012F0D89003360436052A04AE84EF12F0A5
:1025040086EF12F07BEF12F0D890073608360350AE
:10251400015C04500258D8A092EF12F094EF12F02C
:1025240099EF12F00350015E0450025A0780D890CC
:1025340004320332052E86EF12F00650D8B4A5EF0C
:1025440012F0A7EF12F0ABEF12F0076C081ED8B030
:10255400082A07C001F008C002F01200000E066E3F
:1025640002BEB9EF12F0B7EF12F0BFEF12F0016C38
:10257400021ED8B0022A010E066E04BEC6EF12F087
:10258400C4EF12F0CAEF12F0036C041ED8B0042A90
:1025940003500410D8B4D1EF12F0D3EF12F0F7EFD8
:1025A40012F0010E056EDBEF12F0D89003360436FC
:1025B400052A04AEE0EF12F0E2EF12F0D7EF12F0CA
:1025C4000350015C04500258D8A0EBEF12F0EDEF79
:1025D40012F0F1EF12F00350015E0450025AD89049
:1025E40004320332052EE2EF12F00650D8B4FDEFA8
:1025F40012F0FFEF12F003EF13F0016C021ED8B0DB
:10260400022A01C001F002C002F01200000E956E11
:102614009450F80B946E8290C30E036ECD0EE82E88
:10262400FED7032EFCD700F0000E016E330EF3EC40
:1026340014F01B0E036E9E0EE82EFED7032EFCD75D
:1026440000D0000E016E330EF3EC14F0A60EE82E4B
:10265400FED700D0000E016E330EF3EC14F000D060
:1026640000D000F0000E016E020EF3EC14F0A60E82
:10267400E82EFED700D0000E016E380EF3EC14F0F5
:10268400A60EE82EFED700D0000E016E010EF3EC6C
:1026940014F0040E036E3E0EE82EFED7032EFCD774
:1026A400000E016E0C0EF3EC14F0A60EE82EFED70D
:1026B40000D01200020E25EC15F00001D86F010EB7
:1026C40025EC15F00001D96F000E25EC15F0000182
:1026D400DA6FD8AD70EF13F072EF13F07DEF13F0F3
:1026E400D8390F0B010B300FCF6FD8510F0B300FB0
:1026F400D06F86EF13F0D8390F0B030B300FCF6F69
:10270400D8510F0B300FD06F3A0ED16FD9390F0B50
:102714000F0B300FD26FD9510F0B300FD36F3A0E0E
:10272400D46FDA390F0B0F0B300FD56FDA510F0B53
:10273400300FD66F1200016E0104D8A4A4EF13F079
:10274400A6EF13F0CBEF13F047EC11F00001EB6FA1
:10275400EB29D8B4B0EF13F0B2EF13F0BFEF13F0DE
:102764009951D8B4B8EF13F0BAEF13F0BFEF13F0E8
:10277400000E996FEB51D8EF13F0EB29D8A4C5EFF5
:1027840013F0C7EF13F0D7EF13F0010E996FD7EFE3
:1027940013F00150D8A4D1EF13F0D3EF13F0D7EF17
:1027A40013F047EC11F0D8EF13F0FF0E1200000EF7
:1027B400016E0950F3EC14F0F6EF13F0010E016E04
:1027C40007C0F6FF08C0F7FFF86A050EF76403D0E8
:1027D4000800F55005D0F6CFE9FFF7CFEAFFEF5038
:1027E400F3EC14F0074A082A07C0F6FF08C0F7FF05
:1027F400F86A050EF76403D00800F55005D0F6CF4B
:10280400E9FFF7CFEAFFEF500009D8A40CEF14F06A
:102814000EEF14F0E0EF13F01200AC0EF66E290E7A
:10282400F76E000EF86E00EE60F010EE3AF009005C
:10283400F5CFEEFFE550E150FAE1B20EF66E2B0E45
:10284400F76E000EF86E00EE5AF010EE06F0090076
:10285400F5CFEEFFE550E150FAE100EECFF01D0EAA
:10286400EE6AE806FDE1596A586A576A566A556A7B
:10287400546A000EF86E00014AEF03F056EF14F0AC
:1028840007C0F6FF08C0F7FFF86A050EF76403D027
:102894000800F55005D0F6CFE9FFF7CFEAFFEF5077
:1028A40088EC15F0074A082A07C0F6FF08C0F7FFAE
:1028B400F86A050EF76403D00800F55005D0F6CF8A
:1028C400E9FFF7CFEAFFEF500009D8A46CEF14F04A
:1028D4006EEF14F042EF14F01200000E25EC15F028
:1028E4000B6E0B508009096E000E6CEC15F0020E95
:1028F40025EC15F00B6E0B50B70B096E020E6CEC49
:1029040015F0930E096E070E6CEC15F0000E25EC15
:1029140015F00B6E0B507F0B096E000E6CEC15F06E
:102924001200076E07C003F0D8900336D890033620
:10293400C250C30B0310C26EC282C2B2A4EF14F021
:10294400A6EF14F09FEF14F0C350C4CF03F0046A51
:1029540003C004F0036A0310056E0450066E05C03C
:1029640001F006C002F01200056ECDEC15F0A00EC9
:10297400BDEC15F00550BDEC15F00250BDEC15F0A2
:10298400C9EC15F00B0E046EB80E036E0306D8A046
:102994000406032806E10428D8A4D3EF14F0D5EFE5
:1029A40014F0C8EF14F012004F4E00474E00475287
:1029B40000473100473200473300473400473500B1
:1029C4004320004E4F2E202054494D4520202045C1
:1029D40056205350000100010001000100010001D4
:1029E4000001026E01B0F9EF14F0FCEF14F08282E2
:1029F400FDEF14F0829202C083FF82848294958E4C
:102A0400828082928284829483BE0BEF15F00DEF54
:102A140015F004EF15F08290959E1200026ECDEC35
:102A240015F0A00EBDEC15F00250BDEC15F0D1EC84
:102A340015F0A10EBDEC15F0C3EC15F0036EC9EC56
:102A440015F003501200026ECDEC15F0D00EBDEC63
:102A540015F00250BDEC15F0D1EC15F0D10EBDEC23
:102A640015F0C3EC15F0036EC9EC15F00350120019
:102A740001500302F3CF05F0F4CF06F00150040235
:102A8400F350062602500302F350062605C001F057
:102A940006C002F01200C08EC08AC098C096C090D2
:102AA400C082C094C292C19AC198000EC46E000E36
:102AB400C36EC2801200948E949CAC9CAC8AAC9879
:102AC400AC96AC84AB8EAB9CAB88B896B890810EB8
:102AD400AF6E12000A6ECDEC15F0D00EBDEC15F001
:102AE4000A50BDEC15F00950BDEC15F0C9EC15F019
:102AF400120008EC13F04DEC15F0ABEC15F0A0EC63
:102B040015F06FEC14F05DEC15F01200016E9EA848
:102B14008EEF15F090EF15F089EF15F09E9801C037
:102B2400ADFF12000A6E000E016E0950F3EC14F0B2
:102B3400010E016E0A50F3EC14F01200948694888E
:102B4400280EC66E310EC86EC79CC78E9E96A1967F
:102B540012000F0EC16E1E0E936EF19E8150E0099D
:102B6400816E12009EA6B9EF15F0BBEF15F0B4EF1D
:102B740015F09E961200016E01C0C9FFB4EC15F069
:102B84001200D5EC15F0DCEC15F0C9501200C58428
:102B9400B4EC15F01200C580B4EC15F01200C58237
:102BA400B4EC15F01200C586B4EC15F01200010067
:0A2BB40001000100C58AC588120067
:020000040020DA
:08000000FFFFFFFFFFFFFFFF00
:020000040030CA
:0E000000FF071F1FFF8285FF0FC00FE00F409C
:00000001FF
